:060000000C945C000C945E
:1000060000000C9400000C9400000C9400000C946A
:1000160000000C9400000C9400000C9400000C945A
:1000260000000C9400000C9400000C9400000C944A
:1000360000000C9400000C9400000C9400000C943A
:1000460000000C9400000C9400000C9400000000CA
:1000560014007061726B697220636F756E746572DD
:1000660000706F6C696E656D61006A756D6C6168B4
:100076003A20007061726B69722070656E75680057
:1000860020202020202020202020202020200000AA
:1000960080C001002D4E414E00494E46000004002E
:1000A6000400540002006A01960001006E019800E7
:1000B6000000F894EE27ECBBF1E0FBBFEBBFE5BF19
:1000C6008DE0A2E0BB27ED938A95E9F780E094E006
:1000D600A0E6ED930197E9F7E4EAF0E085919591C2
:1000E600009761F0A591B59105901590BF01F001BB
:1000F60005900D920197E1F7FB01F0CFEFE5EDBF1B
:10010600E4E0EEBFC0E6D1E00C948900E0E0EABB93
:10011600EFEFEBBBE7BBE0E0E8BBE4BBE5BBE1BB75
:10012600E2BBE3BFE2BFECBFEFBDEEBDEDBDECBD94
:10013600E7BDE6BDEBBDEABDE9BDE8BDE2BDE5BD97
:10014600E4BDE3BDE9BFE5BFE4BFEAB9E0E8E8B96D
:10015600E0E0E0BFE6B9EDB9E6BFA0E1D2D00E948B
:10016600DF01A8E5B0E0BAD0E3E00E94E401A7E62B
:10017600B0E0B4D0A8EEB3E00E94F9017FD00E94AF
:10018600DF010E94E801CB9909C0F20131962F01E7
:10019600B29AA0EDB7E00E94F90102C0E0E0E8BB28
:1001A600CC9909C0F20131972F01B39AA0EDB7E0BF
:1001B6000E94F90102C0E0E0E8BB00240414050433
:1001C60034F00E94DF010E94E801442455244614BD
:1001D600570454F02301E0E00E94E401A9E7B0E0EF
:1001E6007DD0E0E0E8BBCB9A6414750454F00E941D
:1001F600DF010E94E801E0E00E94E401A6E8B0E029
:100206006DD05A924A92A0E6B1E00E94B101E8E0B0
:10021600EA93A0E026D0A0E6B1E051D0B0CFFFCF60
:10022600AA93E5B3E07FAE2FE881E295EF70EA2B63
:10023600E5BB82E08A95F1F7AD9A82E08A95F1F7FF
:10024600AD9882E08A95F1F787C0AA93A881E8DF86
:10025600E881E295E883A881E3DF81E18A95F1F7F9
:100266007BC0AA93E881F0E0E659FE4FE081A981C0
:10027600AE0FEBDF9980888022960895A2E00E9457
:10028600EC01ACE0E2DFA1E00E94EC01E0E08E2EA2
:100296009E2E0895AA93A881AA3011F09B1448F0C7
:1002A600E0E0EA938394A82DDCDFA881AA3009F464
:1002B60053C09394AF9AA881C8DFAF984DC0BA9344
:1002C600AA931A93A981BA81ED91A983BA831E2FA5
:1002D600E03019F0A12FDEDFF5CF10C0BA93AA9354
:1002E6001A93E981FA813196E983FA833197E49189
:1002F6001E2FE03019F0A12FCDDFF3CF1881239602
:100306000895AA93E4B3EF60E4BBA59AA79AA69AC8
:10031600AD98AF98AE98B880E881E058E0936C014C
:10032600E881E054E0936D01A4E1B0E00E94F90198
:100336000E94F2010E94F2010E94F201A0E270DF27
:1003460081E28A95F1F7A8E280DFA4E07EDFA5E8E6
:100356007CDFA6E07ADF92DF21960895BA93AA930E
:10036600A991B991E991F99130962AF4E095F09521
:1003760031966DE26D93E89480E197E20DD088EEB8
:1003860093E00AD084E6992707D08AE005D06E2F3D
:1003960010D066276C9308956627E817F90720F0B2
:1003A6006395E81BF90BC9F7662311F416F0089557
:1003B6006894605D6D930895E0E0EA93A0E00C9484
:1003C6003401EA93A1E00C943401A0E7B0E00C9468
:1003D60071010E942801A3E0B0E00C94F901A0E3AA
:1003E6000E94130181E28A95F1F70895109639F07B
:1003F6008AEF90E00197F1F7A8951197C9F708954C
:00000001FF
